{"abi":[{"type":"constructor","inputs":[{"name":"_taxRate","type":"uint256","internalType":"uint256"}],"stateMutability":"nonpayable"},{"type":"function","name":"calculateValue","inputs":[{"name":"amount","type":"uint256","internalType":"uint256"}],"outputs":[{"name":"","type":"uint256","internalType":"uint256"}],"stateMutability":"view"},{"type":"function","name":"owner","inputs":[],"outputs":[{"name":"","type":"address","internalType":"address"}],"stateMutability":"view"},{"type":"function","name":"payAndValidate","inputs":[],"outputs":[{"name":"rest","type":"uint256","internalType":"uint256"}],"stateMutability":"payable"},{"type":"function","name":"setTaxRate","inputs":[{"name":"_taxRate","type":"uint256","internalType":"uint256"}],"outputs":[],"stateMutability":"nonpayable"},{"type":"function","name":"taxRate","inputs":[],"outputs":[{"name":"","type":"uint256","internalType":"uint256"}],"stateMutability":"view"},{"type":"function","name":"withdraw","inputs":[],"outputs":[],"stateMutability":"nonpayable"}],"bytecode":{"object":"0x6080604052348015600e575f5ffd5b506040516108a53803806108a58339818101604052810190602e919060ab565b335f5f6101000a81548173ffffffffffffffffffffffffffffffffffffffff021916908373ffffffffffffffffffffffffffffffffffffffff160217905550806001819055505060d1565b5f5ffd5b5f819050919050565b608d81607d565b81146096575f5ffd5b50565b5f8151905060a5816086565b92915050565b5f6020828403121560bd5760bc6079565b5b5f60c8848285016099565b91505092915050565b6107c7806100de5f395ff3fe608060405260043610610054575f3560e01c80633ccfd60b14610058578063771a3a1d1461006e5780638da5cb5b1461009857806391c75a2e146100c2578063c6d69a30146100fe578063dce34db314610126575b5f5ffd5b348015610063575f5ffd5b5061006c610144565b005b348015610079575f5ffd5b50610082610238565b60405161008f9190610481565b60405180910390f35b3480156100a3575f5ffd5b506100ac61023e565b6040516100b991906104d9565b60405180910390f35b3480156100cd575f5ffd5b506100e860048036038101906100e39190610520565b610262565b6040516100f59190610481565b60405180910390f35b348015610109575f5ffd5b50610124600480360381019061011f9190610520565b610284565b005b61012e610360565b60405161013b9190610481565b60405180910390f35b5f5f9054906101000a900473ffffffffffffffffffffffffffffffffffffffff1673ffffffffffffffffffffffffffffffffffffffff163373ffffffffffffffffffffffffffffffffffffffff16146101d2576040517f08c379a00000000000000000000000000000000000000000000000000000000081526004016101c9906105a5565b60405180910390fd5b5f5f9054906101000a900473ffffffffffffffffffffffffffffffffffffffff1673ffffffffffffffffffffffffffffffffffffffff166108fc4790811502906040515f60405180830381858888f19350505050158015610235573d5f5f3e3d5ffd5b50565b60015481565b5f5f9054906101000a900473ffffffffffffffffffffffffffffffffffffffff1681565b5f60646001548361027391906105f0565b61027d919061065e565b9050919050565b5f5f9054906101000a900473ffffffffffffffffffffffffffffffffffffffff1673ffffffffffffffffffffffffffffffffffffffff163373ffffffffffffffffffffffffffffffffffffffff1614610312576040517f08c379a0000000000000000000000000000000000000000000000000000000008152600401610309906105a5565b60405180910390fd5b6064811115610356576040517f08c379a000000000000000000000000000000000000000000000000000000000815260040161034d906106d8565b60405180910390fd5b8060018190555050565b5f5f34116103a3576040517f08c379a000000000000000000000000000000000000000000000000000000000815260040161039a90610740565b60405180910390fd5b5f6103ad34610262565b905080346103bb919061075e565b91505f5f9054906101000a900473ffffffffffffffffffffffffffffffffffffffff1673ffffffffffffffffffffffffffffffffffffffff166108fc8290811502906040515f60405180830381858888f19350505050158015610420573d5f5f3e3d5ffd5b503373ffffffffffffffffffffffffffffffffffffffff166108fc8390811502906040515f60405180830381858888f19350505050158015610464573d5f5f3e3d5ffd5b505090565b5f819050919050565b61047b81610469565b82525050565b5f6020820190506104945f830184610472565b92915050565b5f73ffffffffffffffffffffffffffffffffffffffff82169050919050565b5f6104c38261049a565b9050919050565b6104d3816104b9565b82525050565b5f6020820190506104ec5f8301846104ca565b92915050565b5f5ffd5b6104ff81610469565b8114610509575f5ffd5b50565b5f8135905061051a816104f6565b92915050565b5f60208284031215610535576105346104f2565b5b5f6105428482850161050c565b91505092915050565b5f82825260208201905092915050565b7f4e6f7420617574686f72697a65640000000000000000000000000000000000005f82015250565b5f61058f600e8361054b565b915061059a8261055b565b602082019050919050565b5f6020820190508181035f8301526105bc81610583565b9050919050565b7f4e487b71000000000000000000000000000000000000000000000000000000005f52601160045260245ffd5b5f6105fa82610469565b915061060583610469565b925082820261061381610469565b9150828204841483151761062a576106296105c3565b5b5092915050565b7f4e487b71000000000000000000000000000000000000000000000000000000005f52601260045260245ffd5b5f61066882610469565b915061067383610469565b92508261068357610682610631565b5b828204905092915050565b7f496e76616c6964207461782072617465000000000000000000000000000000005f82015250565b5f6106c260108361054b565b91506106cd8261068e565b602082019050919050565b5f6020820190508181035f8301526106ef816106b6565b9050919050565b7f4e6f20415641582073656e7400000000000000000000000000000000000000005f82015250565b5f61072a600c8361054b565b9150610735826106f6565b602082019050919050565b5f6020820190508181035f8301526107578161071e565b9050919050565b5f61076882610469565b915061077383610469565b925082820390508181111561078b5761078a6105c3565b5b9291505056fea264697066735822122087d072009bd0f48d04eeb0358c0f1f3eb53099bf7382d72e28b603ca5a762bc764736f6c634300081e0033","linkReferences":{}},"methodIdentifiers":{"calculateValue(uint256)":"91c75a2e","owner()":"8da5cb5b","payAndValidate()":"dce34db3","setTaxRate(uint256)":"c6d69a30","taxRate()":"771a3a1d","withdraw()":"3ccfd60b"},"id":21}